{
  "_format": "hh-sol-artifact-1",
  "contractName": "NftMarketPlace",
  "sourceName": "contracts/NFTMarketplace.sol",
  "abi": [
    {
      "inputs": [],
      "stateMutability": "nonpayable",
      "type": "constructor"
    },
    {
      "anonymous": false,
      "inputs": [
        {
          "indexed": true,
          "internalType": "address",
          "name": "owner",
          "type": "address"
        },
        {
          "indexed": true,
          "internalType": "address",
          "name": "approved",
          "type": "address"
        },
        {
          "indexed": true,
          "internalType": "uint256",
          "name": "tokenId",
          "type": "uint256"
        }
      ],
      "name": "Approval",
      "type": "event"
    },
    {
      "anonymous": false,
      "inputs": [
        {
          "indexed": true,
          "internalType": "address",
          "name": "owner",
          "type": "address"
        },
        {
          "indexed": true,
          "internalType": "address",
          "name": "operator",
          "type": "address"
        },
        {
          "indexed": false,
          "internalType": "bool",
          "name": "approved",
          "type": "bool"
        }
      ],
      "name": "ApprovalForAll",
      "type": "event"
    },
    {
      "anonymous": false,
      "inputs": [
        {
          "indexed": false,
          "internalType": "uint256",
          "name": "_fromTokenId",
          "type": "uint256"
        },
        {
          "indexed": false,
          "internalType": "uint256",
          "name": "_toTokenId",
          "type": "uint256"
        }
      ],
      "name": "BatchMetadataUpdate",
      "type": "event"
    },
    {
      "anonymous": false,
      "inputs": [
        {
          "indexed": false,
          "internalType": "uint256",
          "name": "_tokenId",
          "type": "uint256"
        }
      ],
      "name": "MetadataUpdate",
      "type": "event"
    },
    {
      "anonymous": false,
      "inputs": [
        {
          "indexed": true,
          "internalType": "address",
          "name": "from",
          "type": "address"
        },
        {
          "indexed": true,
          "internalType": "address",
          "name": "to",
          "type": "address"
        },
        {
          "indexed": true,
          "internalType": "uint256",
          "name": "tokenId",
          "type": "uint256"
        }
      ],
      "name": "Transfer",
      "type": "event"
    },
    {
      "inputs": [],
      "name": "FetchMyNfts",
      "outputs": [
        {
          "components": [
            {
              "internalType": "uint256",
              "name": "tokenId",
              "type": "uint256"
            },
            {
              "internalType": "address payable",
              "name": "seller",
              "type": "address"
            },
            {
              "internalType": "address payable",
              "name": "owner",
              "type": "address"
            },
            {
              "internalType": "uint256",
              "name": "price",
              "type": "uint256"
            },
            {
              "internalType": "bool",
              "name": "sold",
              "type": "bool"
            }
          ],
          "internalType": "struct NftMarketPlace.MarketItems[]",
          "name": "",
          "type": "tuple[]"
        }
      ],
      "stateMutability": "view",
      "type": "function"
    },
    {
      "inputs": [],
      "name": "FetchUnsoldNfts",
      "outputs": [
        {
          "components": [
            {
              "internalType": "uint256",
              "name": "tokenId",
              "type": "uint256"
            },
            {
              "internalType": "address payable",
              "name": "seller",
              "type": "address"
            },
            {
              "internalType": "address payable",
              "name": "owner",
              "type": "address"
            },
            {
              "internalType": "uint256",
              "name": "price",
              "type": "uint256"
            },
            {
              "internalType": "bool",
              "name": "sold",
              "type": "bool"
            }
          ],
          "internalType": "struct NftMarketPlace.MarketItems[]",
          "name": "",
          "type": "tuple[]"
        }
      ],
      "stateMutability": "view",
      "type": "function"
    },
    {
      "inputs": [
        {
          "internalType": "address",
          "name": "to",
          "type": "address"
        },
        {
          "internalType": "uint256",
          "name": "tokenId",
          "type": "uint256"
        }
      ],
      "name": "approve",
      "outputs": [],
      "stateMutability": "nonpayable",
      "type": "function"
    },
    {
      "inputs": [
        {
          "internalType": "address",
          "name": "owner",
          "type": "address"
        }
      ],
      "name": "balanceOf",
      "outputs": [
        {
          "internalType": "uint256",
          "name": "",
          "type": "uint256"
        }
      ],
      "stateMutability": "view",
      "type": "function"
    },
    {
      "inputs": [
        {
          "internalType": "uint256",
          "name": "tokenId",
          "type": "uint256"
        }
      ],
      "name": "buyNFT",
      "outputs": [],
      "stateMutability": "payable",
      "type": "function"
    },
    {
      "inputs": [
        {
          "internalType": "string",
          "name": "tokenURI",
          "type": "string"
        },
        {
          "internalType": "uint256",
          "name": "price",
          "type": "uint256"
        }
      ],
      "name": "createToken",
      "outputs": [
        {
          "internalType": "uint256",
          "name": "",
          "type": "uint256"
        }
      ],
      "stateMutability": "payable",
      "type": "function"
    },
    {
      "inputs": [
        {
          "internalType": "uint256",
          "name": "tokenId",
          "type": "uint256"
        }
      ],
      "name": "getApproved",
      "outputs": [
        {
          "internalType": "address",
          "name": "",
          "type": "address"
        }
      ],
      "stateMutability": "view",
      "type": "function"
    },
    {
      "inputs": [
        {
          "internalType": "address",
          "name": "owner",
          "type": "address"
        },
        {
          "internalType": "address",
          "name": "operator",
          "type": "address"
        }
      ],
      "name": "isApprovedForAll",
      "outputs": [
        {
          "internalType": "bool",
          "name": "",
          "type": "bool"
        }
      ],
      "stateMutability": "view",
      "type": "function"
    },
    {
      "inputs": [],
      "name": "listedNfts",
      "outputs": [
        {
          "components": [
            {
              "internalType": "uint256",
              "name": "tokenId",
              "type": "uint256"
            },
            {
              "internalType": "address payable",
              "name": "seller",
              "type": "address"
            },
            {
              "internalType": "address payable",
              "name": "owner",
              "type": "address"
            },
            {
              "internalType": "uint256",
              "name": "price",
              "type": "uint256"
            },
            {
              "internalType": "bool",
              "name": "sold",
              "type": "bool"
            }
          ],
          "internalType": "struct NftMarketPlace.MarketItems[]",
          "name": "",
          "type": "tuple[]"
        }
      ],
      "stateMutability": "view",
      "type": "function"
    },
    {
      "inputs": [],
      "name": "name",
      "outputs": [
        {
          "internalType": "string",
          "name": "",
          "type": "string"
        }
      ],
      "stateMutability": "view",
      "type": "function"
    },
    {
      "inputs": [
        {
          "internalType": "uint256",
          "name": "tokenId",
          "type": "uint256"
        }
      ],
      "name": "ownerOf",
      "outputs": [
        {
          "internalType": "address",
          "name": "",
          "type": "address"
        }
      ],
      "stateMutability": "view",
      "type": "function"
    },
    {
      "inputs": [
        {
          "internalType": "uint256",
          "name": "tokenId",
          "type": "uint256"
        },
        {
          "internalType": "uint256",
          "name": "price",
          "type": "uint256"
        }
      ],
      "name": "resellNFT",
      "outputs": [],
      "stateMutability": "payable",
      "type": "function"
    },
    {
      "inputs": [],
      "name": "returnListingPrice",
      "outputs": [
        {
          "internalType": "uint256",
          "name": "",
          "type": "uint256"
        }
      ],
      "stateMutability": "view",
      "type": "function"
    },
    {
      "inputs": [
        {
          "internalType": "address",
          "name": "from",
          "type": "address"
        },
        {
          "internalType": "address",
          "name": "to",
          "type": "address"
        },
        {
          "internalType": "uint256",
          "name": "tokenId",
          "type": "uint256"
        }
      ],
      "name": "safeTransferFrom",
      "outputs": [],
      "stateMutability": "nonpayable",
      "type": "function"
    },
    {
      "inputs": [
        {
          "internalType": "address",
          "name": "from",
          "type": "address"
        },
        {
          "internalType": "address",
          "name": "to",
          "type": "address"
        },
        {
          "internalType": "uint256",
          "name": "tokenId",
          "type": "uint256"
        },
        {
          "internalType": "bytes",
          "name": "data",
          "type": "bytes"
        }
      ],
      "name": "safeTransferFrom",
      "outputs": [],
      "stateMutability": "nonpayable",
      "type": "function"
    },
    {
      "inputs": [
        {
          "internalType": "address",
          "name": "operator",
          "type": "address"
        },
        {
          "internalType": "bool",
          "name": "approved",
          "type": "bool"
        }
      ],
      "name": "setApprovalForAll",
      "outputs": [],
      "stateMutability": "nonpayable",
      "type": "function"
    },
    {
      "inputs": [
        {
          "internalType": "bytes4",
          "name": "interfaceId",
          "type": "bytes4"
        }
      ],
      "name": "supportsInterface",
      "outputs": [
        {
          "internalType": "bool",
          "name": "",
          "type": "bool"
        }
      ],
      "stateMutability": "view",
      "type": "function"
    },
    {
      "inputs": [],
      "name": "symbol",
      "outputs": [
        {
          "internalType": "string",
          "name": "",
          "type": "string"
        }
      ],
      "stateMutability": "view",
      "type": "function"
    },
    {
      "inputs": [
        {
          "internalType": "uint256",
          "name": "tokenId",
          "type": "uint256"
        }
      ],
      "name": "tokenURI",
      "outputs": [
        {
          "internalType": "string",
          "name": "",
          "type": "string"
        }
      ],
      "stateMutability": "view",
      "type": "function"
    },
    {
      "inputs": [
        {
          "internalType": "address",
          "name": "from",
          "type": "address"
        },
        {
          "internalType": "address",
          "name": "to",
          "type": "address"
        },
        {
          "internalType": "uint256",
          "name": "tokenId",
          "type": "uint256"
        }
      ],
      "name": "transferFrom",
      "outputs": [],
      "stateMutability": "nonpayable",
      "type": "function"
    },
    {
      "inputs": [
        {
          "internalType": "uint256",
          "name": "_listingPrice",
          "type": "uint256"
        }
      ],
      "name": "updateListingPrice",
      "outputs": [],
      "stateMutability": "payable",
      "type": "function"
    }
  ],
  "bytecode": "0x60806040526608e1bc9bf04000600b553480156200001c57600080fd5b506040518060400160405280600e81526020017f4d6574617665727365546f6b656e0000000000000000000000000000000000008152506040518060400160405280600381526020017f4d5454000000000000000000000000000000000000000000000000000000000081525081600090816200009a919062000370565b508060019081620000ac919062000370565b50505033600960006101000a81548173ffffffffffffffffffffffffffffffffffffffff021916908373ffffffffffffffffffffffffffffffffffffffff16021790555062000457565b600081519050919050565b7f4e487b7100000000000000000000000000000000000000000000000000000000600052604160045260246000fd5b7f4e487b7100000000000000000000000000000000000000000000000000000000600052602260045260246000fd5b600060028204905060018216806200017857607f821691505b6020821081036200018e576200018d62000130565b5b50919050565b60008190508160005260206000209050919050565b60006020601f8301049050919050565b600082821b905092915050565b600060088302620001f87fffffffffffffffffffffffffffffffffffffffffffffffffffffffffffffffff82620001b9565b620002048683620001b9565b95508019841693508086168417925050509392505050565b6000819050919050565b6000819050919050565b6000620002516200024b62000245846200021c565b62000226565b6200021c565b9050919050565b6000819050919050565b6200026d8362000230565b620002856200027c8262000258565b848454620001c6565b825550505050565b600090565b6200029c6200028d565b620002a981848462000262565b505050565b5b81811015620002d157620002c560008262000292565b600181019050620002af565b5050565b601f8211156200032057620002ea8162000194565b620002f584620001a9565b8101602085101562000305578190505b6200031d6200031485620001a9565b830182620002ae565b50505b505050565b600082821c905092915050565b6000620003456000198460080262000325565b1980831691505092915050565b600062000360838362000332565b9150826002028217905092915050565b6200037b82620000f6565b67ffffffffffffffff81111562000397576200039662000101565b5b620003a382546200015f565b620003b0828285620002d5565b600060209050601f831160018114620003e85760008415620003d3578287015190505b620003df858262000352565b8655506200044f565b601f198416620003f88662000194565b60005b828110156200042257848901518255600182019150602085019450602081019050620003fb565b868310156200044257848901516200043e601f89168262000332565b8355505b6001600288020188555050505b505050505050565b61412580620004676000396000f3fe60806040526004361061012a5760003560e01c806370a08231116100ab578063ac3dfc731161006f578063ac3dfc73146103ea578063ae677aa314610406578063b88d4fde14610422578063c87b56dd1461044b578063e0f6b5e714610488578063e985e9c5146104b35761012a565b806370a08231146102fe57806372b3b6201461033b5780638570b43d1461036b57806395d89b4114610396578063a22cb465146103c15761012a565b806323b872dd116100f257806323b872dd1461022857806342842e0e1461025157806351ed82881461027a578063552b9362146102965780636352211e146102c15761012a565b806301ffc9a71461012f57806306fdde031461016c578063081812fc14610197578063095ea7b3146101d4578063236cc46e146101fd575b600080fd5b34801561013b57600080fd5b5061015660048036038101906101519190612ac0565b6104f0565b6040516101639190612b08565b60405180910390f35b34801561017857600080fd5b50610181610551565b60405161018e9190612bb3565b60405180910390f35b3480156101a357600080fd5b506101be60048036038101906101b99190612c0b565b6105e3565b6040516101cb9190612c79565b60405180910390f35b3480156101e057600080fd5b506101fb60048036038101906101f69190612cc0565b610629565b005b34801561020957600080fd5b50610212610740565b60405161021f9190612d0f565b60405180910390f35b34801561023457600080fd5b5061024f600480360381019061024a9190612d2a565b61074a565b005b34801561025d57600080fd5b5061027860048036038101906102739190612d2a565b6107aa565b005b610294600480360381019061028f9190612c0b565b6107ca565b005b3480156102a257600080fd5b506102ab610a02565b6040516102b89190612ed3565b60405180910390f35b3480156102cd57600080fd5b506102e860048036038101906102e39190612c0b565b610cee565b6040516102f59190612c79565b60405180910390f35b34801561030a57600080fd5b5061032560048036038101906103209190612ef5565b610d74565b6040516103329190612d0f565b60405180910390f35b61035560048036038101906103509190613057565b610e2b565b6040516103629190612d0f565b60405180910390f35b34801561037757600080fd5b50610380610e6d565b60405161038d9190612ed3565b60405180910390f35b3480156103a257600080fd5b506103ab6110d5565b6040516103b89190612bb3565b60405180910390f35b3480156103cd57600080fd5b506103e860048036038101906103e391906130df565b611167565b005b61040460048036038101906103ff919061311f565b61117d565b005b610420600480360381019061041b9190612c0b565b611372565b005b34801561042e57600080fd5b5061044960048036038101906104449190613200565b61137c565b005b34801561045757600080fd5b50610472600480360381019061046d9190612c0b565b6113de565b60405161047f9190612bb3565b60405180910390f35b34801561049457600080fd5b5061049d6114f0565b6040516104aa9190612ed3565b60405180910390f35b3480156104bf57600080fd5b506104da60048036038101906104d59190613283565b6117dc565b6040516104e79190612b08565b60405180910390f35b6000634906490660e01b7bffffffffffffffffffffffffffffffffffffffffffffffffffffffff1916827bffffffffffffffffffffffffffffffffffffffffffffffffffffffff1916148061054a575061054982611870565b5b9050919050565b606060008054610560906132f2565b80601f016020809104026020016040519081016040528092919081815260200182805461058c906132f2565b80156105d95780601f106105ae576101008083540402835291602001916105d9565b820191906000526020600020905b8154815290600101906020018083116105bc57829003601f168201915b5050505050905090565b60006105ee82611952565b6004600083815260200190815260200160002060009054906101000a900473ffffffffffffffffffffffffffffffffffffffff169050919050565b600061063482610cee565b90508073ffffffffffffffffffffffffffffffffffffffff168373ffffffffffffffffffffffffffffffffffffffff16036106a4576040517f08c379a000000000000000000000000000000000000000000000000000000000815260040161069b90613395565b60405180910390fd5b8073ffffffffffffffffffffffffffffffffffffffff166106c361199d565b73ffffffffffffffffffffffffffffffffffffffff1614806106f257506106f1816106ec61199d565b6117dc565b5b610731576040517f08c379a000000000000000000000000000000000000000000000000000000000815260040161072890613427565b60405180910390fd5b61073b83836119a5565b505050565b6000600b54905090565b61075b61075561199d565b82611a5e565b61079a576040517f08c379a0000000000000000000000000000000000000000000000000000000008152600401610791906134b9565b60405180910390fd5b6107a5838383611af3565b505050565b6107c58383836040518060200160405280600081525061137c565b505050565b6000600a6000838152602001908152602001600020600301549050803414610827576040517f08c379a000000000000000000000000000000000000000000000000000000000815260040161081e9061354b565b60405180910390fd5b33600a600084815260200190815260200160002060020160006101000a81548173ffffffffffffffffffffffffffffffffffffffff021916908373ffffffffffffffffffffffffffffffffffffffff1602179055506001600a600084815260200190815260200160002060040160006101000a81548160ff0219169083151502179055506000600a600084815260200190815260200160002060010160006101000a81548173ffffffffffffffffffffffffffffffffffffffff021916908373ffffffffffffffffffffffffffffffffffffffff16021790555061090b6008611dec565b610916303384611af3565b600960009054906101000a900473ffffffffffffffffffffffffffffffffffffffff1673ffffffffffffffffffffffffffffffffffffffff166108fc600b549081150290604051600060405180830381858888f19350505050158015610980573d6000803e3d6000fd5b50600a600083815260200190815260200160002060010160009054906101000a900473ffffffffffffffffffffffffffffffffffffffff1673ffffffffffffffffffffffffffffffffffffffff166108fc349081150290604051600060405180830381858888f193505050501580156109fd573d6000803e3d6000fd5b505050565b60606000610a106007611e02565b905060008060005b83811015610ab8573373ffffffffffffffffffffffffffffffffffffffff16600a6000600184610a48919061359a565b815260200190815260200160002060020160009054906101000a900473ffffffffffffffffffffffffffffffffffffffff1673ffffffffffffffffffffffffffffffffffffffff1603610aa557600183610aa2919061359a565b92505b8080610ab0906135ce565b915050610a18565b5060008267ffffffffffffffff811115610ad557610ad4612f2c565b5b604051908082528060200260200182016040528015610b0e57816020015b610afb6129f7565b815260200190600190039081610af35790505b50905060005b84811015610ce3573373ffffffffffffffffffffffffffffffffffffffff16600a6000600184610b44919061359a565b815260200190815260200160002060020160009054906101000a900473ffffffffffffffffffffffffffffffffffffffff1673ffffffffffffffffffffffffffffffffffffffff1603610cd0576000600182610ba0919061359a565b90506000600a60008381526020019081526020016000209050806040518060a0016040529081600082015481526020016001820160009054906101000a900473ffffffffffffffffffffffffffffffffffffffff1673ffffffffffffffffffffffffffffffffffffffff1673ffffffffffffffffffffffffffffffffffffffff1681526020016002820160009054906101000a900473ffffffffffffffffffffffffffffffffffffffff1673ffffffffffffffffffffffffffffffffffffffff1673ffffffffffffffffffffffffffffffffffffffff168152602001600382015481526020016004820160009054906101000a900460ff161515151581525050848681518110610cb357610cb2613616565b5b6020026020010181905250600185610ccb919061359a565b945050505b8080610cdb906135ce565b915050610b14565b508094505050505090565b600080610cfa83611e10565b9050600073ffffffffffffffffffffffffffffffffffffffff168173ffffffffffffffffffffffffffffffffffffffff1603610d6b576040517f08c379a0000000000000000000000000000000000000000000000000000000008152600401610d6290613691565b60405180910390fd5b80915050919050565b60008073ffffffffffffffffffffffffffffffffffffffff168273ffffffffffffffffffffffffffffffffffffffff1603610de4576040517f08c379a0000000000000000000000000000000000000000000000000000000008152600401610ddb90613723565b60405180910390fd5b600360008373ffffffffffffffffffffffffffffffffffffffff1673ffffffffffffffffffffffffffffffffffffffff168152602001908152602001600020549050919050565b6000610e376007611dec565b6000610e436007611e02565b9050610e4f3382611e4d565b610e59818561206a565b610e63818461210e565b8091505092915050565b60606000610e7b6007611e02565b90506000610e896008611e02565b610e936007611e02565b610e9d9190613743565b90506000808267ffffffffffffffff811115610ebc57610ebb612f2c565b5b604051908082528060200260200182016040528015610ef557816020015b610ee26129f7565b815260200190600190039081610eda5790505b50905060005b848110156110ca573073ffffffffffffffffffffffffffffffffffffffff16600a6000600184610f2b919061359a565b815260200190815260200160002060020160009054906101000a900473ffffffffffffffffffffffffffffffffffffffff1673ffffffffffffffffffffffffffffffffffffffff16036110b7576000600182610f87919061359a565b90506000600a60008381526020019081526020016000209050806040518060a0016040529081600082015481526020016001820160009054906101000a900473ffffffffffffffffffffffffffffffffffffffff1673ffffffffffffffffffffffffffffffffffffffff1673ffffffffffffffffffffffffffffffffffffffff1681526020016002820160009054906101000a900473ffffffffffffffffffffffffffffffffffffffff1673ffffffffffffffffffffffffffffffffffffffff1673ffffffffffffffffffffffffffffffffffffffff168152602001600382015481526020016004820160009054906101000a900460ff16151515158152505084868151811061109a57611099613616565b5b60200260200101819052506001856110b2919061359a565b945050505b80806110c2906135ce565b915050610efb565b508094505050505090565b6060600180546110e4906132f2565b80601f0160208091040260200160405190810160405280929190818152602001828054611110906132f2565b801561115d5780601f106111325761010080835404028352916020019161115d565b820191906000526020600020905b81548152906001019060200180831161114057829003601f168201915b5050505050905090565b61117961117261199d565b83836122d2565b5050565b3373ffffffffffffffffffffffffffffffffffffffff16600a600084815260200190815260200160002060020160009054906101000a900473ffffffffffffffffffffffffffffffffffffffff1673ffffffffffffffffffffffffffffffffffffffff1614611221576040517f08c379a0000000000000000000000000000000000000000000000000000000008152600401611218906137e9565b60405180910390fd5b600b543414611265576040517f08c379a000000000000000000000000000000000000000000000000000000000815260040161125c9061387b565b60405180910390fd5b6000600a600084815260200190815260200160002060040160006101000a81548160ff02191690831515021790555080600a60008481526020019081526020016000206003018190555033600a600084815260200190815260200160002060010160006101000a81548173ffffffffffffffffffffffffffffffffffffffff021916908373ffffffffffffffffffffffffffffffffffffffff16021790555030600a600084815260200190815260200160002060020160006101000a81548173ffffffffffffffffffffffffffffffffffffffff021916908373ffffffffffffffffffffffffffffffffffffffff160217905550611363600861243e565b61136e333084611af3565b5050565b80600b8190555050565b61138d61138761199d565b83611a5e565b6113cc576040517f08c379a00000000000000000000000000000000000000000000000000000000081526004016113c3906134b9565b60405180910390fd5b6113d88484848461249a565b50505050565b60606113e982611952565b6000600660008481526020019081526020016000208054611409906132f2565b80601f0160208091040260200160405190810160405280929190818152602001828054611435906132f2565b80156114825780601f1061145757610100808354040283529160200191611482565b820191906000526020600020905b81548152906001019060200180831161146557829003601f168201915b5050505050905060006114936124f6565b905060008151036114a85781925050506114eb565b6000825111156114dd5780826040516020016114c59291906138d7565b604051602081830303815290604052925050506114eb565b6114e68461250d565b925050505b919050565b606060006114fe6007611e02565b905060008060005b838110156115a6573373ffffffffffffffffffffffffffffffffffffffff16600a6000600184611536919061359a565b815260200190815260200160002060010160009054906101000a900473ffffffffffffffffffffffffffffffffffffffff1673ffffffffffffffffffffffffffffffffffffffff160361159357600183611590919061359a565b92505b808061159e906135ce565b915050611506565b5060008267ffffffffffffffff8111156115c3576115c2612f2c565b5b6040519080825280602002602001820160405280156115fc57816020015b6115e96129f7565b8152602001906001900390816115e15790505b50905060005b848110156117d1573373ffffffffffffffffffffffffffffffffffffffff16600a6000600184611632919061359a565b815260200190815260200160002060010160009054906101000a900473ffffffffffffffffffffffffffffffffffffffff1673ffffffffffffffffffffffffffffffffffffffff16036117be57600060018261168e919061359a565b90506000600a60008381526020019081526020016000209050806040518060a0016040529081600082015481526020016001820160009054906101000a900473ffffffffffffffffffffffffffffffffffffffff1673ffffffffffffffffffffffffffffffffffffffff1673ffffffffffffffffffffffffffffffffffffffff1681526020016002820160009054906101000a900473ffffffffffffffffffffffffffffffffffffffff1673ffffffffffffffffffffffffffffffffffffffff1673ffffffffffffffffffffffffffffffffffffffff168152602001600382015481526020016004820160009054906101000a900460ff1615151515815250508486815181106117a1576117a0613616565b5b60200260200101819052506001856117b9919061359a565b945050505b80806117c9906135ce565b915050611602565b508094505050505090565b6000600560008473ffffffffffffffffffffffffffffffffffffffff1673ffffffffffffffffffffffffffffffffffffffff16815260200190815260200160002060008373ffffffffffffffffffffffffffffffffffffffff1673ffffffffffffffffffffffffffffffffffffffff16815260200190815260200160002060009054906101000a900460ff16905092915050565b60007f80ac58cd000000000000000000000000000000000000000000000000000000007bffffffffffffffffffffffffffffffffffffffffffffffffffffffff1916827bffffffffffffffffffffffffffffffffffffffffffffffffffffffff1916148061193b57507f5b5e139f000000000000000000000000000000000000000000000000000000007bffffffffffffffffffffffffffffffffffffffffffffffffffffffff1916827bffffffffffffffffffffffffffffffffffffffffffffffffffffffff1916145b8061194b575061194a82612575565b5b9050919050565b61195b816125df565b61199a576040517f08c379a000000000000000000000000000000000000000000000000000000000815260040161199190613691565b60405180910390fd5b50565b600033905090565b816004600083815260200190815260200160002060006101000a81548173ffffffffffffffffffffffffffffffffffffffff021916908373ffffffffffffffffffffffffffffffffffffffff160217905550808273ffffffffffffffffffffffffffffffffffffffff16611a1883610cee565b73ffffffffffffffffffffffffffffffffffffffff167f8c5be1e5ebec7d5bd14f71427d1e84f3dd0314c0f7b2291e5b200ac8c7c3b92560405160405180910390a45050565b600080611a6a83610cee565b90508073ffffffffffffffffffffffffffffffffffffffff168473ffffffffffffffffffffffffffffffffffffffff161480611aac5750611aab81856117dc565b5b80611aea57508373ffffffffffffffffffffffffffffffffffffffff16611ad2846105e3565b73ffffffffffffffffffffffffffffffffffffffff16145b91505092915050565b8273ffffffffffffffffffffffffffffffffffffffff16611b1382610cee565b73ffffffffffffffffffffffffffffffffffffffff1614611b69576040517f08c379a0000000000000000000000000000000000000000000000000000000008152600401611b609061396d565b60405180910390fd5b600073ffffffffffffffffffffffffffffffffffffffff168273ffffffffffffffffffffffffffffffffffffffff1603611bd8576040517f08c379a0000000000000000000000000000000000000000000000000000000008152600401611bcf906139ff565b60405180910390fd5b611be58383836001612620565b8273ffffffffffffffffffffffffffffffffffffffff16611c0582610cee565b73ffffffffffffffffffffffffffffffffffffffff1614611c5b576040517f08c379a0000000000000000000000000000000000000000000000000000000008152600401611c529061396d565b60405180910390fd5b6004600082815260200190815260200160002060006101000a81549073ffffffffffffffffffffffffffffffffffffffff02191690556001600360008573ffffffffffffffffffffffffffffffffffffffff1673ffffffffffffffffffffffffffffffffffffffff168152602001908152602001600020600082825403925050819055506001600360008473ffffffffffffffffffffffffffffffffffffffff1673ffffffffffffffffffffffffffffffffffffffff16815260200190815260200160002060008282540192505081905550816002600083815260200190815260200160002060006101000a81548173ffffffffffffffffffffffffffffffffffffffff021916908373ffffffffffffffffffffffffffffffffffffffff160217905550808273ffffffffffffffffffffffffffffffffffffffff168473ffffffffffffffffffffffffffffffffffffffff167fddf252ad1be2c89b69c2b068fc378daa952ba7f163c4a11628f55a4df523b3ef60405160405180910390a4611de78383836001612626565b505050565b6001816000016000828254019250508190555050565b600081600001549050919050565b60006002600083815260200190815260200160002060009054906101000a900473ffffffffffffffffffffffffffffffffffffffff169050919050565b600073ffffffffffffffffffffffffffffffffffffffff168273ffffffffffffffffffffffffffffffffffffffff1603611ebc576040517f08c379a0000000000000000000000000000000000000000000000000000000008152600401611eb390613a6b565b60405180910390fd5b611ec5816125df565b15611f05576040517f08c379a0000000000000000000000000000000000000000000000000000000008152600401611efc90613ad7565b60405180910390fd5b611f13600083836001612620565b611f1c816125df565b15611f5c576040517f08c379a0000000000000000000000000000000000000000000000000000000008152600401611f5390613ad7565b60405180910390fd5b6001600360008473ffffffffffffffffffffffffffffffffffffffff1673ffffffffffffffffffffffffffffffffffffffff16815260200190815260200160002060008282540192505081905550816002600083815260200190815260200160002060006101000a81548173ffffffffffffffffffffffffffffffffffffffff021916908373ffffffffffffffffffffffffffffffffffffffff160217905550808273ffffffffffffffffffffffffffffffffffffffff16600073ffffffffffffffffffffffffffffffffffffffff167fddf252ad1be2c89b69c2b068fc378daa952ba7f163c4a11628f55a4df523b3ef60405160405180910390a4612066600083836001612626565b5050565b612073826125df565b6120b2576040517f08c379a00000000000000000000000000000000000000000000000000000000081526004016120a990613b69565b60405180910390fd5b806006600084815260200190815260200160002090816120d29190613d35565b507ff8e1a15aba9398e019f0b49df1a4fde98ee17ae345cb5f6b5e2c27f5033e8ce7826040516121029190612d0f565b60405180910390a15050565b60008111612151576040517f08c379a000000000000000000000000000000000000000000000000000000000815260040161214890613e53565b60405180910390fd5b600b543414612195576040517f08c379a000000000000000000000000000000000000000000000000000000000815260040161218c9061387b565b60405180910390fd5b6040518060a001604052808381526020013373ffffffffffffffffffffffffffffffffffffffff1681526020013073ffffffffffffffffffffffffffffffffffffffff16815260200182815260200160001515815250600a60008481526020019081526020016000206000820151816000015560208201518160010160006101000a81548173ffffffffffffffffffffffffffffffffffffffff021916908373ffffffffffffffffffffffffffffffffffffffff16021790555060408201518160020160006101000a81548173ffffffffffffffffffffffffffffffffffffffff021916908373ffffffffffffffffffffffffffffffffffffffff1602179055506060820151816003015560808201518160040160006101000a81548160ff0219169083151502179055509050506122ce333084611af3565b5050565b8173ffffffffffffffffffffffffffffffffffffffff168373ffffffffffffffffffffffffffffffffffffffff1603612340576040517f08c379a000000000000000000000000000000000000000000000000000000000815260040161233790613ebf565b60405180910390fd5b80600560008573ffffffffffffffffffffffffffffffffffffffff1673ffffffffffffffffffffffffffffffffffffffff16815260200190815260200160002060008473ffffffffffffffffffffffffffffffffffffffff1673ffffffffffffffffffffffffffffffffffffffff16815260200190815260200160002060006101000a81548160ff0219169083151502179055508173ffffffffffffffffffffffffffffffffffffffff168373ffffffffffffffffffffffffffffffffffffffff167f17307eab39ab6107e8899845ad3d59bd9653f200f220920489ca2b5937696c31836040516124319190612b08565b60405180910390a3505050565b6000816000015490506000811161248a576040517f08c379a000000000000000000000000000000000000000000000000000000000815260040161248190613f2b565b60405180910390fd5b6001810382600001819055505050565b6124a5848484611af3565b6124b18484848461262c565b6124f0576040517f08c379a00000000000000000000000000000000000000000000000000000000081526004016124e790613fbd565b60405180910390fd5b50505050565b606060405180602001604052806000815250905090565b606061251882611952565b60006125226124f6565b90506000815111612542576040518060200160405280600081525061256d565b8061254c846127b3565b60405160200161255d9291906138d7565b6040516020818303038152906040525b915050919050565b60007f01ffc9a7000000000000000000000000000000000000000000000000000000007bffffffffffffffffffffffffffffffffffffffffffffffffffffffff1916827bffffffffffffffffffffffffffffffffffffffffffffffffffffffff1916149050919050565b60008073ffffffffffffffffffffffffffffffffffffffff1661260183611e10565b73ffffffffffffffffffffffffffffffffffffffff1614159050919050565b50505050565b50505050565b600061264d8473ffffffffffffffffffffffffffffffffffffffff16612881565b156127a6578373ffffffffffffffffffffffffffffffffffffffff1663150b7a0261267661199d565b8786866040518563ffffffff1660e01b81526004016126989493929190614032565b6020604051808303816000875af19250505080156126d457506040513d601f19601f820116820180604052508101906126d19190614093565b60015b612756573d8060008114612704576040519150601f19603f3d011682016040523d82523d6000602084013e612709565b606091505b50600081510361274e576040517f08c379a000000000000000000000000000000000000000000000000000000000815260040161274590613fbd565b60405180910390fd5b805181602001fd5b63150b7a0260e01b7bffffffffffffffffffffffffffffffffffffffffffffffffffffffff1916817bffffffffffffffffffffffffffffffffffffffffffffffffffffffff1916149150506127ab565b600190505b949350505050565b6060600060016127c2846128a4565b01905060008167ffffffffffffffff8111156127e1576127e0612f2c565b5b6040519080825280601f01601f1916602001820160405280156128135781602001600182028036833780820191505090505b509050600082602001820190505b600115612876578080600190039150507f3031323334353637383961626364656600000000000000000000000000000000600a86061a8153600a858161286a576128696140c0565b5b04945060008503612821575b819350505050919050565b6000808273ffffffffffffffffffffffffffffffffffffffff163b119050919050565b600080600090507a184f03e93ff9f4daa797ed6e38ed64bf6a1f0100000000000000008310612902577a184f03e93ff9f4daa797ed6e38ed64bf6a1f01000000000000000083816128f8576128f76140c0565b5b0492506040810190505b6d04ee2d6d415b85acef8100000000831061293f576d04ee2d6d415b85acef81000000008381612935576129346140c0565b5b0492506020810190505b662386f26fc10000831061296e57662386f26fc100008381612964576129636140c0565b5b0492506010810190505b6305f5e1008310612997576305f5e100838161298d5761298c6140c0565b5b0492506008810190505b61271083106129bc5761271083816129b2576129b16140c0565b5b0492506004810190505b606483106129df57606483816129d5576129d46140c0565b5b0492506002810190505b600a83106129ee576001810190505b80915050919050565b6040518060a0016040528060008152602001600073ffffffffffffffffffffffffffffffffffffffff168152602001600073ffffffffffffffffffffffffffffffffffffffff168152602001600081526020016000151581525090565b6000604051905090565b600080fd5b600080fd5b60007fffffffff0000000000000000000000000000000000000000000000000000000082169050919050565b612a9d81612a68565b8114612aa857600080fd5b50565b600081359050612aba81612a94565b92915050565b600060208284031215612ad657612ad5612a5e565b5b6000612ae484828501612aab565b91505092915050565b60008115159050919050565b612b0281612aed565b82525050565b6000602082019050612b1d6000830184612af9565b92915050565b600081519050919050565b600082825260208201905092915050565b60005b83811015612b5d578082015181840152602081019050612b42565b60008484015250505050565b6000601f19601f8301169050919050565b6000612b8582612b23565b612b8f8185612b2e565b9350612b9f818560208601612b3f565b612ba881612b69565b840191505092915050565b60006020820190508181036000830152612bcd8184612b7a565b905092915050565b6000819050919050565b612be881612bd5565b8114612bf357600080fd5b50565b600081359050612c0581612bdf565b92915050565b600060208284031215612c2157612c20612a5e565b5b6000612c2f84828501612bf6565b91505092915050565b600073ffffffffffffffffffffffffffffffffffffffff82169050919050565b6000612c6382612c38565b9050919050565b612c7381612c58565b82525050565b6000602082019050612c8e6000830184612c6a565b92915050565b612c9d81612c58565b8114612ca857600080fd5b50565b600081359050612cba81612c94565b92915050565b60008060408385031215612cd757612cd6612a5e565b5b6000612ce585828601612cab565b9250506020612cf685828601612bf6565b9150509250929050565b612d0981612bd5565b82525050565b6000602082019050612d246000830184612d00565b92915050565b600080600060608486031215612d4357612d42612a5e565b5b6000612d5186828701612cab565b9350506020612d6286828701612cab565b9250506040612d7386828701612bf6565b9150509250925092565b600081519050919050565b600082825260208201905092915050565b6000819050602082019050919050565b612db281612bd5565b82525050565b6000612dc382612c38565b9050919050565b612dd381612db8565b82525050565b612de281612aed565b82525050565b60a082016000820151612dfe6000850182612da9565b506020820151612e116020850182612dca565b506040820151612e246040850182612dca565b506060820151612e376060850182612da9565b506080820151612e4a6080850182612dd9565b50505050565b6000612e5c8383612de8565b60a08301905092915050565b6000602082019050919050565b6000612e8082612d7d565b612e8a8185612d88565b9350612e9583612d99565b8060005b83811015612ec6578151612ead8882612e50565b9750612eb883612e68565b925050600181019050612e99565b5085935050505092915050565b60006020820190508181036000830152612eed8184612e75565b905092915050565b600060208284031215612f0b57612f0a612a5e565b5b6000612f1984828501612cab565b91505092915050565b600080fd5b600080fd5b7f4e487b7100000000000000000000000000000000000000000000000000000000600052604160045260246000fd5b612f6482612b69565b810181811067ffffffffffffffff82111715612f8357612f82612f2c565b5b80604052505050565b6000612f96612a54565b9050612fa28282612f5b565b919050565b600067ffffffffffffffff821115612fc257612fc1612f2c565b5b612fcb82612b69565b9050602081019050919050565b82818337600083830152505050565b6000612ffa612ff584612fa7565b612f8c565b90508281526020810184848401111561301657613015612f27565b5b613021848285612fd8565b509392505050565b600082601f83011261303e5761303d612f22565b5b813561304e848260208601612fe7565b91505092915050565b6000806040838503121561306e5761306d612a5e565b5b600083013567ffffffffffffffff81111561308c5761308b612a63565b5b61309885828601613029565b92505060206130a985828601612bf6565b9150509250929050565b6130bc81612aed565b81146130c757600080fd5b50565b6000813590506130d9816130b3565b92915050565b600080604083850312156130f6576130f5612a5e565b5b600061310485828601612cab565b9250506020613115858286016130ca565b9150509250929050565b6000806040838503121561313657613135612a5e565b5b600061314485828601612bf6565b925050602061315585828601612bf6565b9150509250929050565b600067ffffffffffffffff82111561317a57613179612f2c565b5b61318382612b69565b9050602081019050919050565b60006131a361319e8461315f565b612f8c565b9050828152602081018484840111156131bf576131be612f27565b5b6131ca848285612fd8565b509392505050565b600082601f8301126131e7576131e6612f22565b5b81356131f7848260208601613190565b91505092915050565b6000806000806080858703121561321a57613219612a5e565b5b600061322887828801612cab565b945050602061323987828801612cab565b935050604061324a87828801612bf6565b925050606085013567ffffffffffffffff81111561326b5761326a612a63565b5b613277878288016131d2565b91505092959194509250565b6000806040838503121561329a57613299612a5e565b5b60006132a885828601612cab565b92505060206132b985828601612cab565b9150509250929050565b7f4e487b7100000000000000000000000000000000000000000000000000000000600052602260045260246000fd5b6000600282049050600182168061330a57607f821691505b60208210810361331d5761331c6132c3565b5b50919050565b7f4552433732313a20617070726f76616c20746f2063757272656e74206f776e6560008201527f7200000000000000000000000000000000000000000000000000000000000000602082015250565b600061337f602183612b2e565b915061338a82613323565b604082019050919050565b600060208201905081810360008301526133ae81613372565b9050919050565b7f4552433732313a20617070726f76652063616c6c6572206973206e6f7420746f60008201527f6b656e206f776e6572206f7220617070726f76656420666f7220616c6c000000602082015250565b6000613411603d83612b2e565b915061341c826133b5565b604082019050919050565b6000602082019050818103600083015261344081613404565b9050919050565b7f4552433732313a2063616c6c6572206973206e6f7420746f6b656e206f776e6560008201527f72206f7220617070726f76656400000000000000000000000000000000000000602082015250565b60006134a3602d83612b2e565b91506134ae82613447565b604082019050919050565b600060208201905081810360008301526134d281613496565b9050919050565b7f596f752068617665206e6f7420656e6f75676820616d6f756e7420746f20636f60008201527f6d706c6574652074686973207472616e73616374696f6e000000000000000000602082015250565b6000613535603783612b2e565b9150613540826134d9565b604082019050919050565b6000602082019050818103600083015261356481613528565b9050919050565b7f4e487b7100000000000000000000000000000000000000000000000000000000600052601160045260246000fd5b60006135a582612bd5565b91506135b083612bd5565b92508282019050808211156135c8576135c761356b565b5b92915050565b60006135d982612bd5565b91507fffffffffffffffffffffffffffffffffffffffffffffffffffffffffffffffff820361360b5761360a61356b565b5b600182019050919050565b7f4e487b7100000000000000000000000000000000000000000000000000000000600052603260045260246000fd5b7f4552433732313a20696e76616c696420746f6b656e2049440000000000000000600082015250565b600061367b601883612b2e565b915061368682613645565b602082019050919050565b600060208201905081810360008301526136aa8161366e565b9050919050565b7f4552433732313a2061646472657373207a65726f206973206e6f74206120766160008201527f6c6964206f776e65720000000000000000000000000000000000000000000000602082015250565b600061370d602983612b2e565b9150613718826136b1565b604082019050919050565b6000602082019050818103600083015261373c81613700565b9050919050565b600061374e82612bd5565b915061375983612bd5565b92508282039050818111156137715761377061356b565b5b92915050565b7f4f6e6c79204e4654206f776e65722063616e20706572666f726d20746869732060008201527f616374696f6e0000000000000000000000000000000000000000000000000000602082015250565b60006137d3602683612b2e565b91506137de82613777565b604082019050919050565b60006020820190508181036000830152613802816137c6565b9050919050565b7f596f752068617665206e6f7420656e6f7567687420616d6f756e7420746f206c60008201527f697374206e667400000000000000000000000000000000000000000000000000602082015250565b6000613865602783612b2e565b915061387082613809565b604082019050919050565b6000602082019050818103600083015261389481613858565b9050919050565b600081905092915050565b60006138b182612b23565b6138bb818561389b565b93506138cb818560208601612b3f565b80840191505092915050565b60006138e382856138a6565b91506138ef82846138a6565b91508190509392505050565b7f4552433732313a207472616e736665722066726f6d20696e636f72726563742060008201527f6f776e6572000000000000000000000000000000000000000000000000000000602082015250565b6000613957602583612b2e565b9150613962826138fb565b604082019050919050565b600060208201905081810360008301526139868161394a565b9050919050565b7f4552433732313a207472616e7366657220746f20746865207a65726f2061646460008201527f7265737300000000000000000000000000000000000000000000000000000000602082015250565b60006139e9602483612b2e565b91506139f48261398d565b604082019050919050565b60006020820190508181036000830152613a18816139dc565b9050919050565b7f4552433732313a206d696e7420746f20746865207a65726f2061646472657373600082015250565b6000613a55602083612b2e565b9150613a6082613a1f565b602082019050919050565b60006020820190508181036000830152613a8481613a48565b9050919050565b7f4552433732313a20746f6b656e20616c7265616479206d696e74656400000000600082015250565b6000613ac1601c83612b2e565b9150613acc82613a8b565b602082019050919050565b60006020820190508181036000830152613af081613ab4565b9050919050565b7f45524337323155524953746f726167653a2055524920736574206f66206e6f6e60008201527f6578697374656e7420746f6b656e000000000000000000000000000000000000602082015250565b6000613b53602e83612b2e565b9150613b5e82613af7565b604082019050919050565b60006020820190508181036000830152613b8281613b46565b9050919050565b60008190508160005260206000209050919050565b60006020601f8301049050919050565b600082821b905092915050565b600060088302613beb7fffffffffffffffffffffffffffffffffffffffffffffffffffffffffffffffff82613bae565b613bf58683613bae565b95508019841693508086168417925050509392505050565b6000819050919050565b6000613c32613c2d613c2884612bd5565b613c0d565b612bd5565b9050919050565b6000819050919050565b613c4c83613c17565b613c60613c5882613c39565b848454613bbb565b825550505050565b600090565b613c75613c68565b613c80818484613c43565b505050565b5b81811015613ca457613c99600082613c6d565b600181019050613c86565b5050565b601f821115613ce957613cba81613b89565b613cc384613b9e565b81016020851015613cd2578190505b613ce6613cde85613b9e565b830182613c85565b50505b505050565b600082821c905092915050565b6000613d0c60001984600802613cee565b1980831691505092915050565b6000613d258383613cfb565b9150826002028217905092915050565b613d3e82612b23565b67ffffffffffffffff811115613d5757613d56612f2c565b5b613d6182546132f2565b613d6c828285613ca8565b600060209050601f831160018114613d9f5760008415613d8d578287015190505b613d978582613d19565b865550613dff565b601f198416613dad86613b89565b60005b82811015613dd557848901518255600182019150602085019450602081019050613db0565b86831015613df25784890151613dee601f891682613cfb565b8355505b6001600288020188555050505b505050505050565b7f50726963652061746c6561737420312077656900000000000000000000000000600082015250565b6000613e3d601383612b2e565b9150613e4882613e07565b602082019050919050565b60006020820190508181036000830152613e6c81613e30565b9050919050565b7f4552433732313a20617070726f766520746f2063616c6c657200000000000000600082015250565b6000613ea9601983612b2e565b9150613eb482613e73565b602082019050919050565b60006020820190508181036000830152613ed881613e9c565b9050919050565b7f436f756e7465723a2064656372656d656e74206f766572666c6f770000000000600082015250565b6000613f15601b83612b2e565b9150613f2082613edf565b602082019050919050565b60006020820190508181036000830152613f4481613f08565b9050919050565b7f4552433732313a207472616e7366657220746f206e6f6e20455243373231526560008201527f63656976657220696d706c656d656e7465720000000000000000000000000000602082015250565b6000613fa7603283612b2e565b9150613fb282613f4b565b604082019050919050565b60006020820190508181036000830152613fd681613f9a565b9050919050565b600081519050919050565b600082825260208201905092915050565b600061400482613fdd565b61400e8185613fe8565b935061401e818560208601612b3f565b61402781612b69565b840191505092915050565b60006080820190506140476000830187612c6a565b6140546020830186612c6a565b6140616040830185612d00565b81810360608301526140738184613ff9565b905095945050505050565b60008151905061408d81612a94565b92915050565b6000602082840312156140a9576140a8612a5e565b5b60006140b78482850161407e565b91505092915050565b7f4e487b7100000000000000000000000000000000000000000000000000000000600052601260045260246000fdfea264697066735822122077205a3d6520152bbc4cc0be57685b57ddec712fe53dbd514ebbad1bf878fa5464736f6c63430008130033",
  "linkReferences": {},
  "deployedLinkReferences": {}
}